{
  "contractName": "Abie",
  "abi": [
    {
      "constant": true,
      "inputs": [
        {
          "name": "",
          "type": "uint256"
        }
      ],
      "name": "proposals",
      "outputs": [
        {
          "name": "name",
          "type": "bytes32"
        },
        {
          "name": "voteYes",
          "type": "uint256"
        },
        {
          "name": "voteNo",
          "type": "uint256"
        },
        {
          "name": "recipient",
          "type": "address"
        },
        {
          "name": "value",
          "type": "uint256"
        },
        {
          "name": "data",
          "type": "bytes32"
        },
        {
          "name": "proposalType",
          "type": "uint8"
        },
        {
          "name": "endDate",
          "type": "uint256"
        },
        {
          "name": "lastMemberCounted",
          "type": "address"
        },
        {
          "name": "executed",
          "type": "bool"
        }
      ],
      "payable": false,
      "stateMutability": "view",
      "type": "function"
    },
    {
      "constant": true,
      "inputs": [],
      "name": "name",
      "outputs": [
        {
          "name": "",
          "type": "bytes32"
        }
      ],
      "payable": false,
      "stateMutability": "view",
      "type": "function"
    },
    {
      "constant": true,
      "inputs": [
        {
          "name": "",
          "type": "address"
        }
      ],
      "name": "members",
      "outputs": [
        {
          "name": "registration",
          "type": "uint256"
        },
        {
          "name": "prev",
          "type": "address"
        },
        {
          "name": "succ",
          "type": "address"
        },
        {
          "name": "proposalStoppedOnHim",
          "type": "uint256"
        }
      ],
      "payable": false,
      "stateMutability": "view",
      "type": "function"
    },
    {
      "constant": false,
      "inputs": [
        {
          "name": "proposalID",
          "type": "uint256"
        },
        {
          "name": "max",
          "type": "uint256"
        }
      ],
      "name": "countVotes",
      "outputs": [],
      "payable": false,
      "stateMutability": "nonpayable",
      "type": "function"
    },
    {
      "constant": true,
      "inputs": [],
      "name": "registrationTime",
      "outputs": [
        {
          "name": "",
          "type": "uint256"
        }
      ],
      "payable": false,
      "stateMutability": "view",
      "type": "function"
    },
    {
      "constant": true,
      "inputs": [
        {
          "name": "m",
          "type": "address"
        }
      ],
      "name": "isValidMember",
      "outputs": [
        {
          "name": "",
          "type": "bool"
        }
      ],
      "payable": false,
      "stateMutability": "view",
      "type": "function"
    },
    {
      "constant": false,
      "inputs": [
        {
          "name": "proposalType",
          "type": "uint8"
        },
        {
          "name": "target",
          "type": "address"
        }
      ],
      "name": "setDelegate",
      "outputs": [],
      "payable": false,
      "stateMutability": "nonpayable",
      "type": "function"
    },
    {
      "constant": false,
      "inputs": [
        {
          "name": "proposalID",
          "type": "uint256"
        }
      ],
      "name": "claim",
      "outputs": [],
      "payable": true,
      "stateMutability": "payable",
      "type": "function"
    },
    {
      "constant": true,
      "inputs": [
        {
          "name": "proposalID",
          "type": "uint256"
        }
      ],
      "name": "timeLeft",
      "outputs": [
        {
          "name": "",
          "type": "uint256"
        }
      ],
      "payable": false,
      "stateMutability": "view",
      "type": "function"
    },
    {
      "constant": true,
      "inputs": [
        {
          "name": "proposalID",
          "type": "uint256"
        }
      ],
      "name": "isExecutable",
      "outputs": [
        {
          "name": "",
          "type": "bool"
        }
      ],
      "payable": false,
      "stateMutability": "view",
      "type": "function"
    },
    {
      "constant": false,
      "inputs": [
        {
          "name": "proposalID",
          "type": "uint256"
        }
      ],
      "name": "executeAddMemberProposal",
      "outputs": [],
      "payable": false,
      "stateMutability": "nonpayable",
      "type": "function"
    },
    {
      "constant": true,
      "inputs": [
        {
          "name": "member",
          "type": "address"
        },
        {
          "name": "proposalType",
          "type": "uint8"
        }
      ],
      "name": "getDelegate",
      "outputs": [
        {
          "name": "",
          "type": "address"
        }
      ],
      "payable": false,
      "stateMutability": "view",
      "type": "function"
    },
    {
      "constant": true,
      "inputs": [
        {
          "name": "",
          "type": "uint256"
        }
      ],
      "name": "voteLength",
      "outputs": [
        {
          "name": "",
          "type": "uint256"
        }
      ],
      "payable": false,
      "stateMutability": "view",
      "type": "function"
    },
    {
      "constant": true,
      "inputs": [],
      "name": "contractBalance",
      "outputs": [
        {
          "name": "",
          "type": "uint256"
        }
      ],
      "payable": false,
      "stateMutability": "view",
      "type": "function"
    },
    {
      "constant": false,
      "inputs": [
        {
          "name": "proposalID",
          "type": "uint256"
        }
      ],
      "name": "countAllVotes",
      "outputs": [],
      "payable": false,
      "stateMutability": "nonpayable",
      "type": "function"
    },
    {
      "constant": false,
      "inputs": [
        {
          "name": "proposalID",
          "type": "uint256"
        },
        {
          "name": "voteType",
          "type": "uint8"
        }
      ],
      "name": "vote",
      "outputs": [],
      "payable": false,
      "stateMutability": "nonpayable",
      "type": "function"
    },
    {
      "constant": false,
      "inputs": [
        {
          "name": "_name",
          "type": "bytes32"
        },
        {
          "name": "_value",
          "type": "uint256"
        },
        {
          "name": "_data",
          "type": "bytes32"
        }
      ],
      "name": "addProposal",
      "outputs": [],
      "payable": true,
      "stateMutability": "payable",
      "type": "function"
    },
    {
      "constant": false,
      "inputs": [],
      "name": "askMembership",
      "outputs": [],
      "payable": true,
      "stateMutability": "payable",
      "type": "function"
    },
    {
      "constant": true,
      "inputs": [],
      "name": "fee",
      "outputs": [
        {
          "name": "",
          "type": "uint256"
        }
      ],
      "payable": false,
      "stateMutability": "view",
      "type": "function"
    },
    {
      "constant": true,
      "inputs": [],
      "name": "nbMembers",
      "outputs": [
        {
          "name": "",
          "type": "uint256"
        }
      ],
      "payable": false,
      "stateMutability": "view",
      "type": "function"
    },
    {
      "constant": true,
      "inputs": [],
      "name": "statement",
      "outputs": [
        {
          "name": "",
          "type": "bytes32"
        }
      ],
      "payable": false,
      "stateMutability": "view",
      "type": "function"
    },
    {
      "constant": true,
      "inputs": [],
      "name": "nbProposalsFund",
      "outputs": [
        {
          "name": "",
          "type": "uint256"
        }
      ],
      "payable": false,
      "stateMutability": "view",
      "type": "function"
    },
    {
      "constant": true,
      "inputs": [],
      "name": "nbMembershipReq",
      "outputs": [
        {
          "name": "",
          "type": "uint256"
        }
      ],
      "payable": false,
      "stateMutability": "view",
      "type": "function"
    },
    {
      "inputs": [
        {
          "name": "_name",
          "type": "bytes32"
        },
        {
          "name": "_statement",
          "type": "bytes32"
        },
        {
          "name": "initialMembers",
          "type": "address[]"
        }
      ],
      "payable": false,
      "stateMutability": "nonpayable",
      "type": "constructor"
    },
    {
      "payable": true,
      "stateMutability": "payable",
      "type": "fallback"
    },
    {
      "anonymous": false,
      "inputs": [
        {
          "indexed": false,
          "name": "donor",
          "type": "address"
        },
        {
          "indexed": false,
          "name": "amount",
          "type": "uint256"
        }
      ],
      "name": "Donated",
      "type": "event"
    }
  ],
  "bytecode": "0x608060405267016345785d8a00006002556301e133806006556040805190810160405280607860ff168152602001607860ff16815250600790600262000047929190620004ca565b50600a6009556000600a60006101000a81548173ffffffffffffffffffffffffffffffffffffffff021916908373ffffffffffffffffffffffffffffffffffffffff1602179055506001600b60006101000a81548173ffffffffffffffffffffffffffffffffffffffff021916908373ffffffffffffffffffffffffffffffffffffffff160217905550348015620000de57600080fd5b506040516200210438038062002104833981018060405281019080805190602001909291908051906020019092919080518201929190505050600080846000816000191690555083600181600019169055505b8251821015620002a657600c600084848151811015156200014e57fe5b9060200190602002015173ffffffffffffffffffffffffffffffffffffffff1673ffffffffffffffffffffffffffffffffffffffff168152602001908152602001600020905042816000018190555060008214156200026757826000815181101515620001b757fe5b90602001906020020151600d60000160006101000a81548173ffffffffffffffffffffffffffffffffffffffff021916908373ffffffffffffffffffffffffffffffffffffffff1602179055508260008151811015156200021457fe5b90602001906020020151600d60010160006101000a81548173ffffffffffffffffffffffffffffffffffffffff021916908373ffffffffffffffffffffffffffffffffffffffff1602179055506200029a565b6200029983838151811015156200027a57fe5b90602001906020020151620002e0640100000000026401000000009004565b5b81600101915062000131565b825160038190555060006003541415620002d557620002d433620002e0640100000000026401000000009004565b5b50505050506200053c565b42600c60008373ffffffffffffffffffffffffffffffffffffffff1673ffffffffffffffffffffffffffffffffffffffff168152602001908152602001600020600001819055506003600081546001019190508190555080600c6000600d60010160009054906101000a900473ffffffffffffffffffffffffffffffffffffffff1673ffffffffffffffffffffffffffffffffffffffff1673ffffffffffffffffffffffffffffffffffffffff16815260200190815260200160002060040160006101000a81548173ffffffffffffffffffffffffffffffffffffffff021916908373ffffffffffffffffffffffffffffffffffffffff160217905550600d60010160009054906101000a900473ffffffffffffffffffffffffffffffffffffffff16600c60008373ffffffffffffffffffffffffffffffffffffffff1673ffffffffffffffffffffffffffffffffffffffff16815260200190815260200160002060030160006101000a81548173ffffffffffffffffffffffffffffffffffffffff021916908373ffffffffffffffffffffffffffffffffffffffff16021790555080600d60010160006101000a81548173ffffffffffffffffffffffffffffffffffffffff021916908373ffffffffffffffffffffffffffffffffffffffff16021790555050565b826002810192821562000501579160200282015b8281111562000500578251829060ff16905591602001919060010190620004de565b5b50905062000510919062000514565b5090565b6200053991905b80821115620005355760008160009055506001016200051b565b5090565b90565b611bb8806200054c6000396000f300608060405260043610610133576000357c0100000000000000000000000000000000000000000000000000000000900463ffffffff168063013cf08b146101a057806306fdde031461029a57806308ae4b0c146102cd5780631364326c146103915780631e2e7a06146103c85780632b01bf51146103f35780633584fa381461044e578063379607f51461049e57806347cb7a68146104be5780634e395e2a146104ff5780636ac26d3d1461054457806372ead941146105715780638b112311146106015780638b7afe2e146106425780638f33df771461066d578063943e82161461069a578063a4ce48c0146106d4578063d664cd8914610710578063ddca3f431461071a578063e1bac4a014610745578063e42cb9f314610770578063e79979e5146107a3578063f1239663146107ce575b7f2a01595cddf097c90216094025db714da3f4e5bd8877b56ba86a24ecead8e5433334604051808373ffffffffffffffffffffffffffffffffffffffff1673ffffffffffffffffffffffffffffffffffffffff1681526020018281526020019250505060405180910390a1005b3480156101ac57600080fd5b506101cb600480360381019080803590602001909291905050506107f9565b604051808b600019166000191681526020018a81526020018981526020018873ffffffffffffffffffffffffffffffffffffffff1673ffffffffffffffffffffffffffffffffffffffff168152602001878152602001866000191660001916815260200185600181111561023b57fe5b60ff1681526020018481526020018373ffffffffffffffffffffffffffffffffffffffff1673ffffffffffffffffffffffffffffffffffffffff168152602001821515151581526020019a505050505050505050505060405180910390f35b3480156102a657600080fd5b506102af6108b6565b60405180826000191660001916815260200191505060405180910390f35b3480156102d957600080fd5b5061030e600480360381019080803573ffffffffffffffffffffffffffffffffffffffff1690602001909291905050506108bc565b604051808581526020018473ffffffffffffffffffffffffffffffffffffffff1673ffffffffffffffffffffffffffffffffffffffff1681526020018373ffffffffffffffffffffffffffffffffffffffff1673ffffffffffffffffffffffffffffffffffffffff16815260200182815260200194505050505060405180910390f35b34801561039d57600080fd5b506103c6600480360381019080803590602001909291908035906020019092919050505061092c565b005b3480156103d457600080fd5b506103dd610dca565b6040518082815260200191505060405180910390f35b3480156103ff57600080fd5b50610434600480360381019080803573ffffffffffffffffffffffffffffffffffffffff169060200190929190505050610dd0565b604051808215151515815260200191505060405180910390f35b34801561045a57600080fd5b5061049c600480360381019080803560ff169060200190929190803573ffffffffffffffffffffffffffffffffffffffff169060200190929190505050610e86565b005b6104bc60048036038101908080359060200190929190505050610f1c565b005b3480156104ca57600080fd5b506104e960048036038101908080359060200190929190505050611085565b6040518082815260200191505060405180910390f35b34801561050b57600080fd5b5061052a600480360381019080803590602001909291905050506110b6565b604051808215151515815260200191505060405180910390f35b34801561055057600080fd5b5061056f600480360381019080803590602001909291905050506111bc565b005b34801561057d57600080fd5b506105bf600480360381019080803573ffffffffffffffffffffffffffffffffffffffff169060200190929190803560ff169060200190929190505050611275565b604051808273ffffffffffffffffffffffffffffffffffffffff1673ffffffffffffffffffffffffffffffffffffffff16815260200191505060405180910390f35b34801561060d57600080fd5b5061062c600480360381019080803590602001909291905050506112f3565b6040518082815260200191505060405180910390f35b34801561064e57600080fd5b5061065761130d565b6040518082815260200191505060405180910390f35b34801561067957600080fd5b506106986004803603810190808035906020019092919050505061132c565b005b3480156106a657600080fd5b506106d260048036038101908080359060200190929190803560ff169060200190929190505050611359565b005b61070e6004803603810190808035600019169060200190929190803590602001909291908035600019169060200190929190505050611497565b005b61071861170a565b005b34801561072657600080fd5b5061072f611984565b6040518082815260200191505060405180910390f35b34801561075157600080fd5b5061075a61198a565b6040518082815260200191505060405180910390f35b34801561077c57600080fd5b50610785611990565b60405180826000191660001916815260200191505060405180910390f35b3480156107af57600080fd5b506107b8611996565b6040518082815260200191505060405180910390f35b3480156107da57600080fd5b506107e361199c565b6040518082815260200191505060405180910390f35b600f8181548110151561080857fe5b90600052602060002090600a02016000915090508060000154908060010154908060020154908060030160009054906101000a900473ffffffffffffffffffffffffffffffffffffffff16908060040154908060050154908060060160009054906101000a900460ff16908060070154908060080160009054906101000a900473ffffffffffffffffffffffffffffffffffffffff16908060080160149054906101000a900460ff1690508a565b60005481565b600c6020528060005260406000206000915090508060000154908060030160009054906101000a900473ffffffffffffffffffffffffffffffffffffffff16908060040160009054906101000a900473ffffffffffffffffffffffffffffffffffffffff16908060050154905084565b600080600080600080600f8881548110151561094457fe5b90600052602060002090600a020195504286600701541115151561096757600080fd5b600b60009054906101000a900473ffffffffffffffffffffffffffffffffffffffff1673ffffffffffffffffffffffffffffffffffffffff168660080160009054906101000a900473ffffffffffffffffffffffffffffffffffffffff1673ffffffffffffffffffffffffffffffffffffffff16141515156109e857600080fd5b600a60009054906101000a900473ffffffffffffffffffffffffffffffffffffffff1673ffffffffffffffffffffffffffffffffffffffff168660080160009054906101000a900473ffffffffffffffffffffffffffffffffffffffff1673ffffffffffffffffffffffffffffffffffffffff161415610a8f57600d60000160009054906101000a900473ffffffffffffffffffffffffffffffffffffffff169450610ab7565b8560080160009054906101000a900473ffffffffffffffffffffffffffffffffffffffff1694505b5b60008780600190039850141515610dc057600c60008673ffffffffffffffffffffffffffffffffffffffff1673ffffffffffffffffffffffffffffffffffffffff1681526020019081526020016000209350849250610b1685610dd0565b15610d0a57600091505b600115610d05578560090160008473ffffffffffffffffffffffffffffffffffffffff1673ffffffffffffffffffffffffffffffffffffffff16815260200190815260200160002060009054906101000a900460ff16905060006002811115610b8557fe5b816002811115610b9157fe5b1415610c9357600182019150600c60008473ffffffffffffffffffffffffffffffffffffffff1673ffffffffffffffffffffffffffffffffffffffff1681526020019081526020016000206001018660060160009054906101000a900460ff166001811115610bfc57fe5b600281101515610c0857fe5b0160009054906101000a900473ffffffffffffffffffffffffffffffffffffffff1692508473ffffffffffffffffffffffffffffffffffffffff168373ffffffffffffffffffffffffffffffffffffffff161480610c7c575060008373ffffffffffffffffffffffffffffffffffffffff16145b80610c88575060095482115b15610c9257610d05565b5b60016002811115610ca057fe5b816002811115610cac57fe5b1415610cca5760018660010160008282540192505081905550610d05565b600280811115610cd657fe5b816002811115610ce257fe5b1415610d005760018660020160008282540192505081905550610d05565b610b20565b610d0b565b5b8360040160009054906101000a900473ffffffffffffffffffffffffffffffffffffffff16945060008573ffffffffffffffffffffffffffffffffffffffff161415610dbb57600b60009054906101000a900473ffffffffffffffffffffffffffffffffffffffff168660080160006101000a81548173ffffffffffffffffffffffffffffffffffffffff021916908373ffffffffffffffffffffffffffffffffffffffff160217905550610dc0565b610ab8565b5050505050505050565b60065481565b600080600c60008473ffffffffffffffffffffffffffffffffffffffff1673ffffffffffffffffffffffffffffffffffffffff168152602001908152602001600020600001541415610e255760009050610e81565b42600654600c60008573ffffffffffffffffffffffffffffffffffffffff1673ffffffffffffffffffffffffffffffffffffffff16815260200190815260200160002060000154011015610e7c5760009050610e81565b600190505b919050565b80600c60003373ffffffffffffffffffffffffffffffffffffffff1673ffffffffffffffffffffffffffffffffffffffff1681526020019081526020016000206001018360ff16600281101515610ed957fe5b0160006101000a81548173ffffffffffffffffffffffffffffffffffffffff021916908373ffffffffffffffffffffffffffffffffffffffff1602179055505050565b600080600080600254803410151515610f3457600080fd5b600f86815481101515610f4357fe5b90600052602060002090600a020194508460030160009054906101000a900473ffffffffffffffffffffffffffffffffffffffff16935084600401549250826002805402019150610f93866110b6565b1515610f9e57600080fd5b600015158560080160149054906101000a900460ff161515141515610fc257600080fd5b3373ffffffffffffffffffffffffffffffffffffffff168473ffffffffffffffffffffffffffffffffffffffff16141515610ffc57600080fd5b60018560080160146101000a81548160ff02191690831515021790555060018560080160146101000a81548160ff0219169083151502179055508373ffffffffffffffffffffffffffffffffffffffff166108fc839081150290604051600060405180830381858888f1935050505015801561107c573d6000803e3d6000fd5b50505050505050565b600080600f8381548110151561109757fe5b90600052602060002090600a0201905042816007015403915050919050565b600080600f838154811015156110c857fe5b90600052602060002090600a02019050600b60009054906101000a900473ffffffffffffffffffffffffffffffffffffffff1673ffffffffffffffffffffffffffffffffffffffff168160080160009054906101000a900473ffffffffffffffffffffffffffffffffffffffff1673ffffffffffffffffffffffffffffffffffffffff1614151561115c57600091506111b6565b8060080160149054906101000a900460ff161561117c57600091506111b6565b3073ffffffffffffffffffffffffffffffffffffffff1631816004015411156111a857600091506111b6565b806002015481600101541191505b50919050565b6000600f828154811015156111cd57fe5b90600052602060002090600a02019050600060018111156111ea57fe5b8160060160009054906101000a900460ff16600181111561120757fe5b14151561121357600080fd5b61121c826110b6565b151561122757600080fd5b60018160080160146101000a81548160ff0219169083151502179055506112718160030160009054906101000a900473ffffffffffffffffffffffffffffffffffffffff166119a2565b5050565b6000600c60008473ffffffffffffffffffffffffffffffffffffffff1673ffffffffffffffffffffffffffffffffffffffff1681526020019081526020016000206001018260ff166002811015156112c957fe5b0160009054906101000a900473ffffffffffffffffffffffffffffffffffffffff16905092915050565b60078160028110151561130257fe5b016000915090505481565b60003073ffffffffffffffffffffffffffffffffffffffff1631905090565b611356817fffffffffffffffffffffffffffffffffffffffffffffffffffffffffffffffff61092c565b50565b600061136433610dd0565b151561136f57600080fd5b600f8381548110151561137e57fe5b90600052602060002090600a020190506000600281111561139b57fe5b8160090160003373ffffffffffffffffffffffffffffffffffffffff1673ffffffffffffffffffffffffffffffffffffffff16815260200190815260200160002060009054906101000a900460ff1660028111156113f557fe5b14151561140157600080fd5b4281600701541015151561141457600080fd5b81600f8481548110151561142457fe5b90600052602060002090600a020160090160003373ffffffffffffffffffffffffffffffffffffffff1673ffffffffffffffffffffffffffffffffffffffff16815260200190815260200160002060006101000a81548160ff0219169083600281111561148d57fe5b0217905550505050565b6002548034101515156114a957600080fd5b7f2a01595cddf097c90216094025db714da3f4e5bd8877b56ba86a24ecead8e5433334604051808373ffffffffffffffffffffffffffffffffffffffff1673ffffffffffffffffffffffffffffffffffffffff1681526020018281526020019250505060405180910390a1600f610140604051908101604052808660001916815260200160008152602001600081526020013373ffffffffffffffffffffffffffffffffffffffff1681526020018581526020018460001916815260200160018081111561157357fe5b8152602001607842018152602001600073ffffffffffffffffffffffffffffffffffffffff168152602001600015158152509080600181540180825580915050906001820390600052602060002090600a02016000909192909190915060008201518160000190600019169055602082015181600101556040820151816002015560608201518160030160006101000a81548173ffffffffffffffffffffffffffffffffffffffff021916908373ffffffffffffffffffffffffffffffffffffffff1602179055506080820151816004015560a0820151816005019060001916905560c08201518160060160006101000a81548160ff0219169083600181111561167957fe5b021790555060e082015181600701556101008201518160080160006101000a81548173ffffffffffffffffffffffffffffffffffffffff021916908373ffffffffffffffffffffffffffffffffffffffff1602179055506101208201518160080160146101000a81548160ff0219169083151502179055505050506004600081546001019190508190555050505050565b60025480341015151561171c57600080fd5b7f2a01595cddf097c90216094025db714da3f4e5bd8877b56ba86a24ecead8e5433334604051808373ffffffffffffffffffffffffffffffffffffffff1673ffffffffffffffffffffffffffffffffffffffff1681526020018281526020019250505060405180910390a1600f61014060405190810160405280600060010260001916815260200160008152602001600081526020013373ffffffffffffffffffffffffffffffffffffffff168152602001600081526020016000600102600019168152602001600060018111156117f057fe5b8152602001607842018152602001600073ffffffffffffffffffffffffffffffffffffffff168152602001600015158152509080600181540180825580915050906001820390600052602060002090600a02016000909192909190915060008201518160000190600019169055602082015181600101556040820151816002015560608201518160030160006101000a81548173ffffffffffffffffffffffffffffffffffffffff021916908373ffffffffffffffffffffffffffffffffffffffff1602179055506080820151816004015560a0820151816005019060001916905560c08201518160060160006101000a81548160ff021916908360018111156118f657fe5b021790555060e082015181600701556101008201518160080160006101000a81548173ffffffffffffffffffffffffffffffffffffffff021916908373ffffffffffffffffffffffffffffffffffffffff1602179055506101208201518160080160146101000a81548160ff0219169083151502179055505050506005600081546001019190508190555050565b60025481565b60035481565b60015481565b60045481565b60055481565b42600c60008373ffffffffffffffffffffffffffffffffffffffff1673ffffffffffffffffffffffffffffffffffffffff168152602001908152602001600020600001819055506003600081546001019190508190555080600c6000600d60010160009054906101000a900473ffffffffffffffffffffffffffffffffffffffff1673ffffffffffffffffffffffffffffffffffffffff1673ffffffffffffffffffffffffffffffffffffffff16815260200190815260200160002060040160006101000a81548173ffffffffffffffffffffffffffffffffffffffff021916908373ffffffffffffffffffffffffffffffffffffffff160217905550600d60010160009054906101000a900473ffffffffffffffffffffffffffffffffffffffff16600c60008373ffffffffffffffffffffffffffffffffffffffff1673ffffffffffffffffffffffffffffffffffffffff16815260200190815260200160002060030160006101000a81548173ffffffffffffffffffffffffffffffffffffffff021916908373ffffffffffffffffffffffffffffffffffffffff16021790555080600d60010160006101000a81548173ffffffffffffffffffffffffffffffffffffffff021916908373ffffffffffffffffffffffffffffffffffffffff160217905550505600a165627a7a72305820783dff459b2609e3a67d5bdff19038da3c1f728d073f34dd42ffda9543205ee60029",
  "source": "/* Part of this contract is from the solidity documentation\nMIT License: https://github.com/AbieFund/abie/blob/master/LICENSE\n*/\n\npragma solidity ^0.4.8;\n\n/// @title The easy fund\ncontract Abie {\n\n    bytes32 public name;\n    bytes32 public statement;\n    uint public fee = 0.1 ether;\n    uint public nbMembers;\n    uint public nbProposalsFund;\n    uint public nbMembershipReq;\n    uint public registrationTime = 1 years;\n    uint[2] public voteLength = [2 minutes, 2 minutes];\n    uint MAX_DELEGATION_DEPTH=10;\n    address NOT_COUNTED=0;\n    address COUNTED=1;\n\n    event Donated(address donor, uint amount);\n\n    enum ProposalType {AddMember,FundProject} // Different types of proposals.\n    enum VoteType {Abstain,Yes,No} // Different value of a vote.\n\n    struct Proposal\n    {\n        bytes32 name; // short name (up to 32 bytes).\n        uint voteYes; // number of YES votes.\n        uint voteNo;  // number of abstention. Number of No can be deduced.\n        address recipient; // address the funds will be sent.\n        uint value; // quantity of wei to be sent.\n        bytes32 data; // data of the transaction.\n        ProposalType proposalType; // type of the proposal.\n        uint endDate; // when the vote will be closed.\n        address lastMemberCounted; // last one who was counted or NOT_COUNTED (if the count has not started) or COUNTED (if all the votes has been counted);\n        bool executed; // true if the proposal have been executed.\n        mapping (address => VoteType) vote; // vote of the party.\n    }\n\n    // Is also a node list.\n    struct Member\n    {\n        uint registration;  // date of registration, if 0 the member does not exist.\n        address[2] delegate; // delegate[proposalType] gives the delegate for the type.\n        address prev;\n        address succ; // this should not be deleted even when the member is.\n        uint proposalStoppedOnHim; // number of proposals stopped on him.\n    }\n\n    mapping (address => Member) public members;\n\n    // Double chained list.\n    struct DoubleChainedList\n    {\n        address first;\n        address last;\n    }\n\n    // Chain containing all members to iterate on.\n    DoubleChainedList memberList;\n\n    Proposal[] public proposals;\n\n    /// Require at least price to be paid.\n    modifier costs(uint price) {\n        require(msg.value>=price);\n        _;\n    }\n\n    /// Require the caller to be a member.\n    modifier isMember() {\n        require(isValidMember(msg.sender));\n        _;\n    }\n\n    /// @param initialMembers First members of the organization.\n    /// @param _name The name of the DAO\n    /// @param _statement The statement of intent of the DAO\n    function Abie(bytes32 _name, bytes32 _statement, address[] initialMembers) public {\n\n        name=_name;\n        statement=_statement;\n        for (uint i;i<initialMembers.length;++i){\n            Member storage member=members[initialMembers[i]];\n            member.registration=now;\n            if (i==0) { // initialize the list with the first member\n                memberList.first=initialMembers[0];\n                memberList.last=initialMembers[0];\n            } else { // add members\n                addMember(initialMembers[i]);\n            }\n        }\n        nbMembers=initialMembers.length;\n        // Set default member.\n        if (nbMembers==0){\n        addMember(msg.sender);\n        }\n }\n\n    // Add the member m to the member list.\n    // Assume that there is at least 1 member registrated.\n    function addMember(address m) private {\n        members[m].registration=now;\n        ++nbMembers;\n        members[memberList.last].succ=m;\n        members[m].prev=memberList.last;\n        memberList.last=m;\n    }\n\n    /** Choose a delegate.\n      * @param proposalType 0 for AddMember, 1 for FundProject.\n      * @param target account to delegate to.\n      */\n    function setDelegate(uint8 proposalType, address target) public\n    {\n        members[msg.sender].delegate[proposalType] = target;\n    }\n\n    /// Receive funds.\n    function () payable public{\n        Donated(msg.sender, msg.value);\n    }\n\n    /// Ask for membership.\n    function askMembership () payable public costs(fee) {\n         Donated(msg.sender,msg.value); // Register the donation.\n\n        // Create a proposal to add the member.\n        proposals.push(Proposal({\n          name: 0x0,\n          voteYes: 0,\n          voteNo: 0,\n          recipient: msg.sender,\n          value: 0x0,\n          data: 0x0,\n          proposalType: ProposalType.AddMember,\n          endDate: now + 2 minutes,\n          //voteLength[uint256(ProposalType.AddMember)],\n          lastMemberCounted: 0,\n          executed: false\n        }));\n\n        ++nbMembershipReq;\n    }\n\n    /// Add Proposal.\n    function addProposal (bytes32 _name, uint _value, bytes32 _data) payable public costs(fee) {\n        Donated(msg.sender,msg.value); // Register the donation.\n\n        // Create a proposal to add the member.\n        proposals.push(Proposal({\n          name: _name,\n          voteYes: 0,\n          voteNo: 0,\n          recipient: msg.sender,\n          value: _value,\n          data: _data,\n          proposalType: ProposalType.FundProject,\n          endDate: now + 2 minutes,\n          lastMemberCounted: 0,\n          executed: false\n        }));\n\n        ++nbProposalsFund;\n    }\n\n    /** Vote for a proposal.\n     *  @param proposalID ID of the proposal to count votes from.\n     *  @param voteType Yes or No.\n     */\n    function vote (uint proposalID, VoteType voteType) public isMember {\n        Proposal storage proposal = proposals[proposalID];\n        require(proposal.vote[msg.sender] == VoteType.Abstain); // Has already voted.\n        require(proposal.endDate >= now); // Vote is over.\n        proposals[proposalID].vote[msg.sender] = voteType;\n    }\n\n    /** Count all the votes. You can call this function if gas limit is not an issue.\n     *  @param proposalID ID of the proposal to count votes from.\n     */\n    function countAllVotes (uint proposalID) public{\n        countVotes (proposalID,uint(-1));\n    }\n\n    /** Count up to max of the votes.\n     *  You may have to call this function multiple times if counting once reach the gas limit.\n     *  This function is necessary to count in multiple times if counting reach gas limit.\n     *  We just count the number of Yes and Abstention, so we will deduce the number of No.\n     *  @param proposalID ID of the proposal to count votes from.\n     *  @param max maximum to count.\n     */\n    function countVotes (uint proposalID, uint max) public {\n        Proposal storage proposal = proposals[proposalID];\n        address current;\n        require (proposal.endDate <= now); // You can't count while the vote is not over.\n        require (proposal.lastMemberCounted != COUNTED); // The count is already over\n\n        if (proposal.lastMemberCounted == NOT_COUNTED)\n            current = memberList.first;\n        else\n            current = proposal.lastMemberCounted;\n\n        while (max-- != 0) {\n            Member storage member = members[current];\n            address delegate=current;\n            if(isValidMember(current)) {\n                uint depth=0;\n                // Search the final vote.\n                while (true){\n                    VoteType voteNow = proposal.vote[delegate];\n                    if (voteNow==VoteType.Abstain) { // Look at the delegate\n                        depth+=1;\n                        delegate=members[delegate].delegate[uint(proposal.proposalType)]; // Find the delegate.\n                        if (delegate==current // The delegation chain forms a circle.\n                            || delegate==0  // Has not set a delegate.\n                            || depth>MAX_DELEGATION_DEPTH) { // Too much depth, we must limit it in order to avoid some circle of delegation made to consume too much gaz.\n                           break;\n                        }\n                    }\n                    if (voteNow==VoteType.Yes) {\n                        proposal.voteYes+=1;\n                        break;\n                    } else if (voteNow==VoteType.No) {\n                        proposal.voteNo+=1;\n                        break;\n                    }\n                }\n            } else {\n                // TODO: Delete the members if they are expired.\n            }\n\n            current=member.succ; // In next iteration start from the next node.\n            if (current==0) { // We reached the last member.\n                proposal.lastMemberCounted=COUNTED;\n                break;\n            }\n        }\n    }\n\n    function executeAddMemberProposal(uint proposalID) public {\n        Proposal storage proposal = proposals[proposalID];\n        require (proposal.proposalType == ProposalType.AddMember); // Not a proposal to add a member.\n        require (isExecutable(proposalID)); // Proposal was not approved.\n        proposal.executed=true; // The proposal will be executed.\n        addMember(proposal.recipient);\n\n    }\n\n    // The following function has NOT been reviewed so far.\n    function claim(uint proposalID) public payable costs(fee) {\n        Proposal storage proposal = proposals[proposalID];\n        address beneficiary = proposal.recipient;\n        uint value = proposal.value;\n        uint check = fee*2+value;\n        require (isExecutable(proposalID)); // rejected if not executable\n        require(proposal.executed == false); // rejected if executed already\n        require (beneficiary == msg.sender); // rejected if caller is not the beneficiary\n        proposal.executed = true; // The proposal is flagged executed.\n        proposal.executed = true; // The proposal was executed.\n        beneficiary.transfer(check); // The beneficiary gets the requested amount.\n    }\n\n    /// CONSTANTS ///\n\n    /** Return the delegate.\n     *  @param member member to get the delegate from.\n     *  @param proposalType 0 for AddMember, 1 for FundProject.\n     */\n    function getDelegate(address member, uint8 proposalType) public constant returns (address){\n        return members[member].delegate[proposalType];\n    }\n\n    /** Return true if the proposal is validated, false otherwise.\n     *  @param proposalID ID of the proposal to count votes from.\n     */\n    function isExecutable(uint proposalID) public constant returns (bool) {\n        Proposal storage proposal = proposals[proposalID];\n\n        if (proposal.lastMemberCounted != COUNTED) // Not counted yet.\n            return false;\n        if (proposal.executed) // The proposal has already been executed.\n            return false;\n        if (proposal.value > address(this).balance) // Not enough to execute it.\n            return false;\n\n        return (proposal.voteYes>proposal.voteNo);\n    }\n\n    function isValidMember(address m) public constant returns(bool) {\n        if (members[m].registration==0) // Not a member.\n            return false;\n        if (members[m].registration+registrationTime<now) // Has expired.\n            return false;\n        return true;\n    }\n\n    function contractBalance() public constant returns(uint256) {\n        return address(this).balance;\n    }\n\n function timeLeft(uint proposalID) public constant returns(uint256) {\n        Proposal storage proposal = proposals[proposalID];\n        return proposal.endDate - now;\n    }\n}\n",
  "sourcePath": "/Users/ju/Desktop/abie/contracts/Abie.sol",
  "compiler": {
    "name": "solc",
    "version": "0.4.23+commit.124ca40d.Emscripten.clang"
  },
  "schemaVersion": "2.0.0",
  "updatedAt": "2018-08-26T10:43:35.659Z"
}